:03000000020951A1
:0C095100787FE4F6D8FD75812402099837
:0A0BE2003F065B4F666D7D077F6FD5
:100B9500010A0002140000080B000000000000001C
:0D0BA50000042000000000011E0A011F00D6
:0B0BD700EF1FAC0670011E4C70F622F0
:1008BC00E4F52475900F751314E590640F70030222
:1008CC0009507F647E00120BD7E590640F6075753C
:1008DC00900FAF90EF24F9601A24FC601124FE6095
:1008EC0008147012E4F513800D7513048008751349
:1008FC0008800375130C7590F0AF90EF24506011C5
:10090C0024E0601124F0601324707015851313809B
:10091C00100513800C05130513800674032513F5BD
:10092C0013AF24EF3395E0FEC3EF94F4EE648094A0
:10093C00815011E59064F0600B7FE87E03120BD7B9
:04094C00052480DD21
:010950002284
:100A6700E5136414601FE51324FD600E240370155D
:100A77000519E519700C05188008E5191519700294
:100A87001518751314E51324F9600E240370150562
:100A97001BE51B700C051A8008E51B151B7002155A
:100AA7001A751314E51324F4601114601B14601FE6
:100AB70014602324077025051D801ED28C751E0A1D
:100AC700E4F51F750A018011D28C750A01800A7539
:0D0AD7000A01C28C8003E4F50A7513142295
:100B7300E50AB4011CD2A30515E51570020514C3DB
:100B830094D0E51494074009E4F50AF514F515C269
:020B9300A3229B
:1009DD00E51D75F00A8485F00BAE18AF197C007D0E
:1009ED0064120AE48F0CAE18AF197C007D0A120A4E
:1009FD00E47C007D0A120AE48D0DAE18AF197C005F
:100A0D007D0A120AE48D0EE4F50FAE1AAF1BFC7DC4
:100A1D0064120AE48F10AE1AAF1B7C007D0A120A15
:100A2D00E47C007D0A120AE48D11AE1AAF1B7C0026
:100A3D007D0A120AE48D12E51E75F00A84F520E593
:100A4D001E75F00A8485F021E51F75F00A84F522E4
:0A0A5D00E51F75F00A8485F02322DE
:10080000E4FDEDB40800504D90080FF8282873025D
:10081000082702082B02083302083702083F0208A3
:100820004302084B02084FC2A08002D2A0C2A1C25C
:10083000A28022C2A08002D2A0D2A1C2A28016C2EF
:10084000A08002D2A0C2A1D2A2800AC2A08002D2FD
:10085000A0D2A1D2A2740B2DF8E6900BE293F58002
:100860007F0A7E00120BD7E4F5800DED64087092CC
:10087000E4FDED14601014601714601E2403702250
:10088000C2A4D2A58004D2A4C2A5D2A6D2A78012A7
:10089000D2A4D2A5C2A6D2A78008D2A4D2A5D2A69D
:1008A000C2A774202DF8E6900BE293F5B07F0A7E84
:0B08B00000120BD7E4F5B00DBD04B73B
:0108BB00221A
:100BC700438901758CFC758A18D2AFD2A9C28C22D1
:100BB300120BC71208BC120A671209DD120B73125B
:040BC300080080EFB7
:03000B00020B39AC
:040B3900C0E0C0D088
:100B3D00758CFC758A180509E50970020508B4E87D
:100B4D0016E508B40311750800750900E51F700559
:100B5D00751F3B151E151FE51E7006E51F7002C2A1
:010B6D008CFB
:050B6E00D0D0D0E03200
:10095D00020BB3E493A3F8E493A34003F68001F2F2
:10096D0008DFF48029E493A3F85407240CC8C3339B
:10097D00C4540F4420C8834004F456800146F6DF6A
:10098D00E4800B0102040810204080900B95E47E5A
:10099D00019360BCA3FF543F30E509541FFEE4935F
:1009AD00A360010ECF54C025E060A840B8E493A326
:1009BD00FAE493A3F8E493A3C8C582C8CAC583CA51
:1009CD00F0A3C8C582C8CAC583CADFE9DEE780BE09
:010BB2000042
:100AE400BC000BBE0029EF8DF084FFADF022E4CCF6
:100AF400F875F008EF2FFFEE33FEEC33FCEE9DECBF
:100B0400984005FCEE9DFE0FD5F0E9E4CEFD22ED04
:100B1400F8F5F0EE8420D21CFEADF075F008EF2F4E
:100B2400FFED33FD4007985006D5F0F222C398FD3F
:050B34000FD5F0EA22DC
:00000001FF
